:020000040800F2
:10000000000002209D070008ED070008ED0700082A
:10001000ED070008ED070008ED07000800000000EC
:10002000000000000000000000000000ED070008D4
:10003000ED07000800000000ED070008D9010008E6
:10004000ED070008ED070008ED070008ED070008C0
:10005000ED070008ED070008ED070008ED070008B0
:10006000ED070008ED070008ED070008ED070008A0
:10007000ED070008ED070008ED070008ED07000890
:10008000ED070008ED070008ED070008000000007C
:10009000000000000000000000000000ED07000864
:1000A000ED070008ED070008ED070008ED07000860
:1000B000ED070008ED070008ED070008ED07000850
:1000C000ED070008ED070008ED070008ED07000840
:1000D000ED070008ED070008ED070008000000002C
:1000E000ED070008ED070008ED070008000000001C
:1000F000000000000000000000000000ED07000804
:1001000000000000ED070008ED070008ED070008FB
:1001100000000000000000000000000000000000DF
:10012000ED070008ED070008ED070008ED070008DF
:10013000ED070008000000000000000000000000C3
:10014000000000000000000000000000ED070008B3
:10015000ED070008ED070008ED070008ED070008AF
:10016000ED070008ED070008000000000000000097
:10017000000000000000000000000000000000007F
:1001800000000000ED070008000000000000000073
:08019000ED070008ED0700086F
:1001980010B5054C237833B9044B13B10448AFF3B9
:1001A80000800123237010BD0C0000200000000017
:1001B8003808000808B5034B1BB103490348AFF3DF
:1001C800008008BD0000000010000020380800086A
:1001D80008B500F0D1F800F046F908BD00B587B0C1
:1001E800002100910B4B1A6B42F008021A631B6B3B
:1001F80003F008030093009B4FF48043019301230D
:100208000293039101A9044800F032F907B05DF8A0
:1002180004FB00BF00380240000C024008B5054846
:10022800054B0360182343604FF6FF13C36000F0CB
:1002380085FA08BD280000200044014008B500F0F8
:1002480081F8FFF7CBFFFFF7E9FF084800F0F2F964
:10025800074B1B6913F0010FFAD0054B00221A61F6
:100268004FF48041034800F0DBF9F1E72800002053
:1002780000440140000C024008B5032000F088F853
:100288000B4A536A43F4E0235362002211466FF08D
:100298000B0000F08FF8002211466FF00A0000F002
:1002A80089F8002211466FF0090000F083F808BDB4
:1002B80000ED00E010B582B000240194094B5A6C9F
:1002C80042F400325A645B6C03F400330193019BDF
:1002D800192000F0A3F822460F21192000F06AF82F
:1002E80002B010BD00380240034AD2F8883043F407
:1002F8007003C2F88830704700ED00E010B504467E
:100308000E4B18784FF47A73B3FBF0F30C4A10686D
:10031800B0FBF3F000F090F868B90F2C01D9012078
:100328000AE0002221464FF0FF3000F043F8034B6B
:100338005C60002000E0012010BD00BF0400002028
:100348000000002008B50B4B1A6842F400721A60CE
:100358001A6842F480621A601A6842F480721A605D
:10036800032000F015F80F20FFF7C8FFFFF784FF00
:10037800002008BD003C0240034A1168034B1B786B
:100388000B441360704700BF700000200400002079
:10039800074AD36823F4E0631B041B0C000200F433
:1003A800E060184340F0BF6040F40030D060704710
:1003B80000ED00E030B4174BDB68C3F30223C3F150
:1003C8000704042C28BF04241D1D062D18D9033B3F
:1003D8004FF0FF3505FA04F421EA0401994005FAC3
:1003E80003F322EA0303194300280BDB0901C9B20E
:1003F80000F1604000F5614080F8001330BC7047A0
:100408000023E5E700F00F000901C9B2024B1954B7
:10041800F4E700BF00ED00E014ED00E0002807DB82
:1004280000F01F02400901239340024A42F820309D
:10043800704700BF00E100E00138B0F1807F0AD2C8
:10044800064B5860064AF02182F823100020986075
:1004580007221A6070470120704700BF10E000E0D3
:1004680000ED00E0704708B5FFF7FCFF08BD00008D
:1004780000230F2B00F2CA80F0B482B05DE08668DA
:100488005F000324BC4026EA0406CC68BC40344321
:100498008460466826EA02064C68C4F300129A4053
:1004A8003243426056E0DC08083450F8247003F008
:1004B800070296000F22B24027EA02070A69B240F3
:1004C8003A4340F8242059E0042200E00022B240D8
:1004D8003A4302344E4E46F824204E4A1468EA4302
:1004E80002EA04064F6817F4803F01D045EA040683
:1004F800484C2660646802EA04064F6817F4003F17
:1005080001D045EA0406434C6660A46802EA040682
:100518004F6817F4801F01D045EA04063D4CA660D9
:10052800E46822404E6816F4001F01D045EA040230
:10053800384CE26001330F2B65D801229A400C68D1
:1005480004EA0205AA42F5D14C6804F00304013C10
:10055800012C94D94A6802F00302032A09D0C4681E
:100568005E000322B24024EA02048A68B2402243B1
:10057800C2604A6802F00302022A94D004685E004E
:100588000322B24024EA02044A6802F00302B2409D
:10059800224302604A6812F4403FCBD00022019205
:1005A8001D4A546C44F480445464526C02F48042F2
:1005B8000192019A9C08A61C154A52F8267003F06D
:1005C800030296000F22B24027EA0207134A90421C
:1005D8003FF47CAF02F5806290420ED002F5806253
:1005E80090420CD002F5806290420AD002F58062F7
:1005F80090423FF469AF072269E7012267E70222C8
:1006080065E7032263E702B0F0BC7047704700BF9C
:1006180000380140003C0140003802400000024020
:10062800436901EA030221EA030141EA02418161C7
:100638007047000090F83D30DBB2012B01D001205B
:100648007047022380F83D300368144A934218D05B
:10065800B3F1804F15D0A2F57C42934211D002F538
:10066800806293420DD002F58062934209D002F570
:100678009A32934205D01A6842F001021A600020AB
:1006880070479A6802F00702062A05D01A6842F0F5
:1006980001021A60002070470020704700000140E6
:1006A8000368254A90420ED0B0F1804F0BD0A2F5D6
:1006B8007C42904207D002F58062904203D002F556
:1006C8008062904203D123F070034A6813431A4AA8
:1006D80090421AD0B0F1804F17D0A2F57C429042D8
:1006E80013D002F5806290420FD002F580629042EA
:1006F8000BD002F59A32904207D002F58062904200
:1007080003D002F58062904203D123F44073CA6893
:10071800134323F080034A69134303608B68C36261
:100728000B688362044B984202D0012343617047EF
:100738000B690363F9E700BF0000014038B310B547
:10074800044690F83D30EBB1022384F83D30211D7A
:100758002068FFF7A5FF012384F8463084F83E306F
:1007680084F83F3084F8403084F8413084F84230CF
:1007780084F8433084F8443084F8453084F83D30B8
:10078800002010BD80F83C30FFF794FDDCE7012025
:1007980070470000DFF834D00D480E490E4A002398
:1007A80002E0D458C4500433C4188C42F9D30B4A1D
:1007B8000B4C002301E013600432A242FBD3FFF785
:1007C80093FD00F011F8FFF739FD70470000022093
:1007D800000000200C000020580800080C00002031
:1007E80074000020FEE7000070B50D4E0D4CA41BF0
:1007F800A4100025A54209D10B4E0C4C00F018F8A6
:10080800A41BA4100025A54205D170BD56F82530BB
:1008180098470135EEE756F8253098470135F2E755
:10082800500800085008000850080008540800083C
:10083800F8B500BFF8BC08BC9E467047F8B500BFC5
:08084800F8BC08BC9E46704795
:04085000BD010008DE
:0408540099010008FE
:0C0858000024F40001000000100000006B
:040000050800079D4B
:00000001FF
